:100000000C9462000C948A000C948A000C948A0070
:100010000C948A000C948A000C948A000C948A0038
:100020000C948A000C948A000C948A000C948A0028
:100030000C948A000C948A000C948A000C948A0018
:100040000C948B020C948A000C9459020C94330289
:100050000C948A000C948A000C948A000C948A00F8
:100060000C948A000C948A000000000023002600F3
:10007000290000000008000201000003040700003E
:1000800000000000000000000000250028002B00F8
:1000900000000000240027002A00040404040404D3
:1000A0000404020202020202030303030303010227
:1000B00004081020408001020408102001020408F6
:1000C00010203E0411241FBECFEFD8E0DEBFCDBF0D
:1000D00011E0A0E0B1E0EAE2F9E002C005900D9283
:1000E000AE34B107D9F721E0AEE4B1E001C01D9212
:1000F000A63FB207E1F710E0C2E6D0E004C02197C6
:10010000FE010E948D04C136D107C9F70E94D502B5
:100110000C9493040C940000CF93DF9390E0FC01C7
:10012000E255FF4F249186569F4FFC01849188230E
:10013000C1F090E0880F991FFC01E057FF4FC59177
:10014000D491FC01EA57FF4FA591B4919FB7F89461
:100150008881E22FE0958E2388838C91E823EC93AD
:100160009FBFDF91CF910895AF92BF92CF92DF9260
:10017000EF92FF920F931F93CF93DF936C017B015C
:100180008B01040F151FEB015E01AE18BF08C017ED
:10019000D10759F06991D601ED91FC910190F08160
:1001A000E02DC6010995892B79F7C501DF91CF9123
:1001B0001F910F91FF90EF90DF90CF90BF90AF9085
:1001C0000895FC01538D448D252F30E0842F90E05D
:1001D000821B930B541710F0CF9608950197089542
:1001E000FC01918D828D981761F0A28DAE0FBF2F0B
:1001F000B11D5D968C91928D9F5F9F73928F90E061
:1002000008958FEF9FEF0895FC01918D828D9817CF
:1002100031F0828DE80FF11D858D90E008958FEF0C
:100220009FEF0895FC01918D228D892F90E0805CD5
:100230009F4F821B91098F739927089589E591E05B
:100240000E94120121E0892B09F420E0822F0895F9
:1002500080E090E0892B29F00E941E0181110C940E
:1002600000000895FC01A48DA80FB92FB11DA35A59
:10027000BF4F2C91848D90E001968F739927848FC6
:10028000A689B7892C93A089B1898C9183708064E9
:100290008C93938D848D981306C00288F389E02D8A
:1002A00080818F7D80830895EF92FF920F931F933B
:1002B000CF93DF93EC0181E0888F9B8D8C8D981319
:1002C0001AC0E889F989808185FF15C09FB7F89425
:1002D000EE89FF896083E889F98980818370806471
:1002E00080839FBF81E090E0DF91CF911F910F91BC
:1002F000FF90EF900895F62E0B8D10E00F5F1F4FCB
:100300000F731127E02E8C8D8E110CC00FB607FCD9
:10031000FACFE889F989808185FFF5CFCE010E9467
:100320003201F1CFEB8DEC0FFD2FF11DE35AFF4FA2
:10033000F0829FB7F8940B8FEA89FB8980818062F5
:10034000CFCFCF93DF93EC01888D8823B9F0AA89B2
:10035000BB89E889F9898C9185FD03C0808186FD80
:100360000DC00FB607FCF7CF8C9185FFF2CF8081CF
:1003700085FFEDCFCE010E943201E9CFDF91CF9111
:1003800008953FB7F8948091530190915401A09142
:100390005501B091560126B5A89B05C02F3F19F015
:1003A0000196A11DB11D3FBFBA2FA92F982F8827F5
:1003B000BC01CD01620F711D811D911D42E0660FD0
:1003C000771F881F991F4A95D1F708958F929F92A2
:1003D000AF92BF92CF92DF92EF92FF924B015C01FE
:1003E0000E94C1016B017C010E94C1016C197D0951
:1003F0008E099F09683E734081059105A8F321E0AD
:10040000821A9108A108B10888EEC80E83E0D81EB0
:10041000E11CF11C81149104A104B10429F7FF909F
:10042000EF90DF90CF90BF90AF909F908F90089506
:10043000FC0101900020E9F73197AF01481B590BEF
:10044000BC0189E591E00C94B400CF93DF930E9446
:100450001802EC0182E191E00E9418028C0F9D1FAE
:10046000DF91CF9108951F920F920FB60F92112432
:100470002F933F934F935F936F937F938F939F93AC
:10048000AF93BF93EF93FF9389E591E00E94320110
:10049000FF91EF91BF91AF919F918F917F916F915C
:1004A0005F914F913F912F910F900FBE0F901F9032
:1004B00018951F920F920FB60F9211242F938F93BE
:1004C0009F93EF93FF93E0916901F0916A0180811E
:1004D000E0916F01F091700182FD1BC090818091CD
:1004E00072018F5F8F7320917301821741F0E09149
:1004F0007201F0E0E75AFE4F958F80937201FF91F1
:10050000EF919F918F912F910F900FBE0F901F90A1
:1005100018958081F4CF1F920F920FB60F9211247D
:100520002F933F938F939F93AF93BF9380914F01EE
:1005300090915001A0915101B091520130914E0122
:1005400023E0230F2D3758F50196A11DB11D2093EF
:100550004E0180934F0190935001A0935101B093AD
:1005600052018091530190915401A0915501B09195
:1005700056010196A11DB11D809353019093540122
:10058000A0935501B0935601BF91AF919F918F9168
:100590003F912F910F900FBE0F901F90189526E856
:1005A000230F0296A11DB11DD2CFCF93DF93CDB7FC
:1005B000DEB7A1970FB6F894DEBF0FBECDBF78941B
:1005C00084B5826084BD84B5816084BD85B5826058
:1005D00085BD85B5816085BD80916E008160809309
:1005E0006E00109281008091810082608093810072
:1005F0008091810081608093810080918000816082
:10060000809380008091B10084608093B1008091DC
:10061000B00081608093B00080917A008460809304
:100620007A0080917A00826080937A0080917A00CB
:10063000816080937A0080917A00806880937A004C
:100640001092C10084E00E948C008EE00E948C0019
:10065000E0916901F0916A0182E08083E091650197
:10066000F09166011082E0916701F09168018FECD2
:10067000808310927101E0916D01F0916E0186E02E
:100680008083E0916B01F0916C01808180618083B7
:10069000E0916B01F0916C01808188608083E09132
:1006A0006B01F0916C01808180688083E0916B0127
:1006B000F0916C0180818F7D808306E710E032EB42
:1006C000E32E30E0F32E4EE9C42E40E0D42E50E469
:1006D000952E60E0A62E60E0B62EF8018491F70119
:1006E0009491F6012491222309F4AAC0882359F099
:1006F000833009F48EC008F081C0813009F48FC0C6
:10070000823009F490C0E22FF0E0EE0FFF1FE859AD
:10071000FF4FA591B4918C91982309F491C085E184
:1007200091E00E9425026AE070E080E090E00E9483
:10073000E60190927C0080917A00806480937A0038
:1007400080917A0086FDFCCF8091780090917900AD
:1007500090935801809357018DE391E00E94180215
:100760004090570150905801052C000C66087708FE
:1007700077FE69C06DE289E591E00E94540122276D
:100780003327A901241935094609570919A2CE01B1
:1007900081963C019AE0292E312C412C512CCA0122
:1007A000B901A20191010E946B04605DF3016293A3
:1007B0003F01211531054105510589F76114710487
:1007C00019F0C3010E94180282E191E00E94180210
:1007D00084E191E00E94250268EE73E080E090E001
:1007E0000E94E601A114B10409F477CF0E941E0112
:1007F000882309F472CF0E9400006FCF8730B1F0D8
:100800008830D1F0843009F07ECF809180008F7DD8
:1008100003C0809180008F778093800074CF84B56F
:100820008F7784BD70CF84B58F7DFBCF8091B00072
:100830008F778093B00067CF8091B0008F7DF9CF24
:1008400089E291E06ECFA301920119A2CE018196B7
:100850003C018AE0282E312C412C512CCA01B901CF
:10086000A20191010E946B04605DF30162933F015C
:10087000211531054105510589F7A0CFE9E5F1E0E2
:100880001382128288EE93E0A0E0B0E08483958327
:10089000A683B78384E091E09183808385EC90E028
:1008A0009587848784EC90E09787868780EC90E03A
:1008B000918B808B81EC90E0938B828B82EC90E02B
:1008C000958B848B86EC90E0978B868B118E128EA5
:1008D000138E148E0895A1E21A2EAA1BBB1BFD01D4
:1008E0000DC0AA1FBB1FEE1FFF1FA217B307E4070F
:1008F000F50720F0A21BB30BE40BF50B661F771F67
:10090000881F991F1A9469F7609570958095909546
:100910009B01AC01BD01CF010895EE0FFF1F0590B3
:0A092000F491E02D0994F894FFCF44
:10092A00000000005401B400E100A1011201F0002E
:10093A0004010D0A004469676974616C2076616C70
:10094A007565203A20647279004469676974616C3C
:10095A002076616C7565203A2077657400416E6176
:0E096A006C6F672076616C7565203A20000086
:00000001FF
